{
  "transactions": [
    {
      "hash": "0x1da262a3587e8c4db7709c4690c856f2d3cb2e3695698bbac01308223c932b30",
      "transactionType": "CREATE",
      "contractName": "Counter",
      "contractAddress": "0x9fe46736679d2d9a65f0992f2272de9f3c7fa6e0",
      "function": null,
      "arguments": null,
      "transaction": {
        "from": "0xf39fd6e51aad88f6f4ce6ab8827279cfffb92266",
        "gas": "0x7d7c3",
        "value": "0x0",
        "input": "0x6080604052348015600e575f5ffd5b5061062f8061001c5f395ff3fe608060405234801561000f575f5ffd5b506004361061007a575f3560e01c8063c8f4226611610058578063c8f42266146100c7578063cb577480146100da578063dec77c09146100ed578063f7a94f4b14610104575f5ffd5b806314d3f10e1461007e5780631e2846e9146100a8578063b7f2056f146100bd575b5f5ffd5b61009161008c366004610527565b61010d565b60405161009f929190610572565b60405180910390f35b6100b061013b565b60405161009f919061058d565b6100c56101d7565b005b6100c56100d5366004610527565b6102a8565b6100c56100e8366004610527565b6103e3565b6100f660015481565b60405190815260200161009f565b6100f660025481565b5f818154811061011b575f80fd5b5f9182526020909120600290910201805460019091015490915060ff1682565b60605f805480602002602001604051908101604052809291908181526020015f905b828210156101ce578382905f5260205f2090600202016040518060400160405290815f8201548152602001600182015f9054906101000a900460ff1660018111156101aa576101aa61053e565b60018111156101bb576101bb61053e565b815250508152602001906001019061015d565b50505050905090565b5f80546040805180820190915281815260208101838152600180840185559380528151600284027f290decd9548b62a8d60345a988386fc84ba6bc95484008f6362f93160ef3e563810191825591517f290decd9548b62a8d60345a988386fc84ba6bc95484008f6362f93160ef3e5649092018054949593949193909160ff191690838181111561026a5761026a61053e565b0217905550506040518281527f5de6696211f89e473c1f65ab59030c7ed3e780bcb2c5abbed4fd8b2603ddb15a91506020015b60405180910390a150565b5f5481106102f25760405162461bcd60e51b8152602060048201526012602482015271119bdbd908191bd95cdb89dd08195e1a5cdd60721b60448201526064015b60405180910390fd5b60015f8281548110610306576103066105ea565b5f9182526020909120600160029092020181015460ff169081111561032d5761032d61053e565b146103725760405162461bcd60e51b8152602060048201526015602482015274119bdbd9081b5d5cdd081899481c1c995c185c9959605a1b60448201526064016102e9565b5f8181548110610384576103846105ea565b5f918252602082206002909102018181556001908101805460ff191690558054916103ae836105fe565b90915550506040518181527fec2dc8e5c0845f91608dfad2021e0c673c32c93259d90c8a451a885b920a78939060200161029d565b5f5481106104285760405162461bcd60e51b8152602060048201526012602482015271119bdbd908191bd95cdb89dd08195e1a5cdd60721b60448201526064016102e9565b5f5f828154811061043b5761043b6105ea565b5f9182526020909120600160029092020181015460ff16908111156104625761046261053e565b146104af5760405162461bcd60e51b815260206004820152601760248201527f466f6f64206d75737420626520756e707265706172656400000000000000000060448201526064016102e9565b60015f82815481106104c3576104c36105ea565b905f5260205f2090600202016001015f6101000a81548160ff021916908360018111156104f2576104f261053e565b02179055506040518181527f2b468e3fce692acedccd001750fd0857aef81d18eab36af515b5de107707e70e9060200161029d565b5f60208284031215610537575f5ffd5b5035919050565b634e487b7160e01b5f52602160045260245ffd5b6002811061056e57634e487b7160e01b5f52602160045260245ffd5b9052565b828152604081016105866020830184610552565b9392505050565b602080825282518282018190525f918401906040840190835b818110156105df57835180518452602081015190506105c86020850182610552565b5060209390930192604092909201916001016105a6565b509095945050505050565b634e487b7160e01b5f52603260045260245ffd5b5f6001820161061b57634e487b7160e01b5f52601160045260245ffd5b506001019056fea164736f6c634300081b000a",
        "nonce": "0x2",
        "chainId": "0x385"
      },
      "additionalContracts": [],
      "isFixedGasLimit": false
    },
    {
      "hash": "0x4506677383b62e4e228fa376e810ae69e6fdacc30aa6efb22ddd500e5cd4ec09",
      "transactionType": "CREATE",
      "contractName": "Counter",
      "contractAddress": "0xcf7ed3acca5a467e9e704c703e8d87f634fb0fc9",
      "function": null,
      "arguments": null,
      "transaction": {
        "from": "0xf39fd6e51aad88f6f4ce6ab8827279cfffb92266",
        "gas": "0x7d7c3",
        "value": "0x0",
        "input": "0x6080604052348015600e575f5ffd5b5061062f8061001c5f395ff3fe608060405234801561000f575f5ffd5b506004361061007a575f3560e01c8063c8f4226611610058578063c8f42266146100c7578063cb577480146100da578063dec77c09146100ed578063f7a94f4b14610104575f5ffd5b806314d3f10e1461007e5780631e2846e9146100a8578063b7f2056f146100bd575b5f5ffd5b61009161008c366004610527565b61010d565b60405161009f929190610572565b60405180910390f35b6100b061013b565b60405161009f919061058d565b6100c56101d7565b005b6100c56100d5366004610527565b6102a8565b6100c56100e8366004610527565b6103e3565b6100f660015481565b60405190815260200161009f565b6100f660025481565b5f818154811061011b575f80fd5b5f9182526020909120600290910201805460019091015490915060ff1682565b60605f805480602002602001604051908101604052809291908181526020015f905b828210156101ce578382905f5260205f2090600202016040518060400160405290815f8201548152602001600182015f9054906101000a900460ff1660018111156101aa576101aa61053e565b60018111156101bb576101bb61053e565b815250508152602001906001019061015d565b50505050905090565b5f80546040805180820190915281815260208101838152600180840185559380528151600284027f290decd9548b62a8d60345a988386fc84ba6bc95484008f6362f93160ef3e563810191825591517f290decd9548b62a8d60345a988386fc84ba6bc95484008f6362f93160ef3e5649092018054949593949193909160ff191690838181111561026a5761026a61053e565b0217905550506040518281527f5de6696211f89e473c1f65ab59030c7ed3e780bcb2c5abbed4fd8b2603ddb15a91506020015b60405180910390a150565b5f5481106102f25760405162461bcd60e51b8152602060048201526012602482015271119bdbd908191bd95cdb89dd08195e1a5cdd60721b60448201526064015b60405180910390fd5b60015f8281548110610306576103066105ea565b5f9182526020909120600160029092020181015460ff169081111561032d5761032d61053e565b146103725760405162461bcd60e51b8152602060048201526015602482015274119bdbd9081b5d5cdd081899481c1c995c185c9959605a1b60448201526064016102e9565b5f8181548110610384576103846105ea565b5f918252602082206002909102018181556001908101805460ff191690558054916103ae836105fe565b90915550506040518181527fec2dc8e5c0845f91608dfad2021e0c673c32c93259d90c8a451a885b920a78939060200161029d565b5f5481106104285760405162461bcd60e51b8152602060048201526012602482015271119bdbd908191bd95cdb89dd08195e1a5cdd60721b60448201526064016102e9565b5f5f828154811061043b5761043b6105ea565b5f9182526020909120600160029092020181015460ff16908111156104625761046261053e565b146104af5760405162461bcd60e51b815260206004820152601760248201527f466f6f64206d75737420626520756e707265706172656400000000000000000060448201526064016102e9565b60015f82815481106104c3576104c36105ea565b905f5260205f2090600202016001015f6101000a81548160ff021916908360018111156104f2576104f261053e565b02179055506040518181527f2b468e3fce692acedccd001750fd0857aef81d18eab36af515b5de107707e70e9060200161029d565b5f60208284031215610537575f5ffd5b5035919050565b634e487b7160e01b5f52602160045260245ffd5b6002811061056e57634e487b7160e01b5f52602160045260245ffd5b9052565b828152604081016105866020830184610552565b9392505050565b602080825282518282018190525f918401906040840190835b818110156105df57835180518452602081015190506105c86020850182610552565b5060209390930192604092909201916001016105a6565b509095945050505050565b634e487b7160e01b5f52603260045260245ffd5b5f6001820161061b57634e487b7160e01b5f52601160045260245ffd5b506001019056fea164736f6c634300081b000a",
        "nonce": "0x3",
        "chainId": "0x385"
      },
      "additionalContracts": [],
      "isFixedGasLimit": false
    },
    {
      "hash": "0x39a4acb1279d55139d0390538b8f4179d73a6bc731fe916d7615ddad057c2c43",
      "transactionType": "CREATE",
      "contractName": null,
      "contractAddress": "0xdc64a140aa3e981100a9beca4e685f962f0cf6c9",
      "function": null,
      "arguments": null,
      "transaction": {
        "from": "0xf39fd6e51aad88f6f4ce6ab8827279cfffb92266",
        "gas": "0x4eeaa",
        "value": "0x0",
        "input": "0x6080604052348015600e575f5ffd5b506103888061001c5f395ff3fe608060405234801561000f575f5ffd5b506004361061004a575f3560e01c8063200ab0d31461004e57806356321191146100855780636c8073fc146100c55780637e25b5f8146100da575b5f5ffd5b61007061005c366004610302565b5f6020819052908152604090205460ff1681565b60405190151581526020015b60405180910390f35b6100ad610093366004610302565b60016020525f90815260409020546001600160a01b031681565b6040516001600160a01b03909116815260200161007c565b6100d86100d3366004610319565b6100ed565b005b6100d86100e8366004610342565b610262565b5f8381526020819052604090205460ff16801561011757505f8281526020819052604090205460ff165b6101595760405162461bcd60e51b815260206004820152600e60248201526d496e76616c696420636861696e7360901b60448201526064015b60405180910390fd5b5f83815260016020526040808220548483529181902054905163647a113360e11b8152600481018490526001600160a01b039283169290911690829063c8f42266906024015f604051808303815f87803b1580156101b5575f5ffd5b505af11580156101c7573d5f5f3e3d5ffd5b50505050806001600160a01b031663b7f2056f6040518163ffffffff1660e01b81526004015f604051808303815f87803b158015610203575f5ffd5b505af1158015610215573d5f5f3e3d5ffd5b505060408051888152602081018890529081018690527f6caf55aaac8bf6263194ec2d9994535af5543876478055fa004d228eb92f19a49250606001905060405180910390a15050505050565b5f8281526020819052604090205460ff16156102c05760405162461bcd60e51b815260206004820152601860248201527f436861696e20616c7265616479207265676973746572656400000000000000006044820152606401610150565b5f918252602082815260408084208054600160ff19909116811790915590915290912080546001600160a01b0319166001600160a01b03909216919091179055565b5f60208284031215610312575f5ffd5b5035919050565b5f5f5f6060848603121561032b575f5ffd5b505081359360208301359350604090920135919050565b5f5f60408385031215610353575f5ffd5b8235915060208301356001600160a01b0381168114610370575f5ffd5b80915050925092905056fea164736f6c634300081b000a",
        "nonce": "0x4",
        "chainId": "0x385"
      },
      "additionalContracts": [],
      "isFixedGasLimit": false
    },
    {
      "hash": "0xbd58be3654598288c6b8ab5ad171bd832939664713fe48763c5c95c6d89cc044",
      "transactionType": "CALL",
      "contractName": null,
      "contractAddress": "0xdc64a140aa3e981100a9beca4e685f962f0cf6c9",
      "function": "registerChain(uint256,address)",
      "arguments": [
        "901",
        "0x9fE46736679d2D9a65F0992F2272dE9f3c7fa6e0"
      ],
      "transaction": {
        "from": "0xf39fd6e51aad88f6f4ce6ab8827279cfffb92266",
        "to": "0xdc64a140aa3e981100a9beca4e685f962f0cf6c9",
        "gas": "0x16709",
        "value": "0x0",
        "input": "0x7e25b5f800000000000000000000000000000000000000000000000000000000000003850000000000000000000000009fe46736679d2d9a65f0992f2272de9f3c7fa6e0",
        "nonce": "0x5",
        "chainId": "0x385"
      },
      "additionalContracts": [],
      "isFixedGasLimit": false
    },
    {
      "hash": "0x19c714a8b78bdf2255dd1e2fbcb2827eb671c51da4be7393346bb02f16ff03d3",
      "transactionType": "CALL",
      "contractName": null,
      "contractAddress": "0xdc64a140aa3e981100a9beca4e685f962f0cf6c9",
      "function": "registerChain(uint256,address)",
      "arguments": [
        "902",
        "0xCf7Ed3AccA5a467e9e704C703E8D87F634fB0Fc9"
      ],
      "transaction": {
        "from": "0xf39fd6e51aad88f6f4ce6ab8827279cfffb92266",
        "to": "0xdc64a140aa3e981100a9beca4e685f962f0cf6c9",
        "gas": "0x16709",
        "value": "0x0",
        "input": "0x7e25b5f80000000000000000000000000000000000000000000000000000000000000386000000000000000000000000cf7ed3acca5a467e9e704c703e8d87f634fb0fc9",
        "nonce": "0x6",
        "chainId": "0x385"
      },
      "additionalContracts": [],
      "isFixedGasLimit": false
    }
  ],
  "receipts": [
    {
      "status": "0x1",
      "cumulativeGasUsed": "0x6086f",
      "logs": [],
      "logsBloom": "0x00000000000000000000000000000000000000000000000000000000000000000000000000000000000000000000000000000000000000000000000000000000000000000000000000000000000000000000000000000000000000000000000000000000000000000000000000000000000000000000000000000000000000000000000000000000000000000000000000000000000000000000000000000000000000000000000000000000000000000000000000000000000000000000000000000000000000000000000000000000000000000000000000000000000000000000000000000000000000000000000000000000000000000000000000000000",
      "type": "0x2",
      "transactionHash": "0x1da262a3587e8c4db7709c4690c856f2d3cb2e3695698bbac01308223c932b30",
      "transactionIndex": "0x0",
      "blockHash": "0xe7c798c30cac80bf60b901b56b2bafca3ab258d1ade55539a895a622491f519e",
      "blockNumber": "0x4c4",
      "gasUsed": "0x6086f",
      "effectiveGasPrice": "0x8",
      "blobGasPrice": "0x1",
      "from": "0xf39fd6e51aad88f6f4ce6ab8827279cfffb92266",
      "to": null,
      "contractAddress": "0x9fe46736679d2d9a65f0992f2272de9f3c7fa6e0"
    },
    {
      "status": "0x1",
      "cumulativeGasUsed": "0xc10de",
      "logs": [],
      "logsBloom": "0x00000000000000000000000000000000000000000000000000000000000000000000000000000000000000000000000000000000000000000000000000000000000000000000000000000000000000000000000000000000000000000000000000000000000000000000000000000000000000000000000000000000000000000000000000000000000000000000000000000000000000000000000000000000000000000000000000000000000000000000000000000000000000000000000000000000000000000000000000000000000000000000000000000000000000000000000000000000000000000000000000000000000000000000000000000000",
      "type": "0x2",
      "transactionHash": "0x4506677383b62e4e228fa376e810ae69e6fdacc30aa6efb22ddd500e5cd4ec09",
      "transactionIndex": "0x1",
      "blockHash": "0xe7c798c30cac80bf60b901b56b2bafca3ab258d1ade55539a895a622491f519e",
      "blockNumber": "0x4c4",
      "gasUsed": "0x6086f",
      "effectiveGasPrice": "0x8",
      "blobGasPrice": "0x1",
      "from": "0xf39fd6e51aad88f6f4ce6ab8827279cfffb92266",
      "to": null,
      "contractAddress": "0xcf7ed3acca5a467e9e704c703e8d87f634fb0fc9"
    },
    {
      "status": "0x1",
      "cumulativeGasUsed": "0xfdc26",
      "logs": [],
      "logsBloom": "0x00000000000000000000000000000000000000000000000000000000000000000000000000000000000000000000000000000000000000000000000000000000000000000000000000000000000000000000000000000000000000000000000000000000000000000000000000000000000000000000000000000000000000000000000000000000000000000000000000000000000000000000000000000000000000000000000000000000000000000000000000000000000000000000000000000000000000000000000000000000000000000000000000000000000000000000000000000000000000000000000000000000000000000000000000000000",
      "type": "0x2",
      "transactionHash": "0x39a4acb1279d55139d0390538b8f4179d73a6bc731fe916d7615ddad057c2c43",
      "transactionIndex": "0x2",
      "blockHash": "0xe7c798c30cac80bf60b901b56b2bafca3ab258d1ade55539a895a622491f519e",
      "blockNumber": "0x4c4",
      "gasUsed": "0x3cb48",
      "effectiveGasPrice": "0x8",
      "blobGasPrice": "0x1",
      "from": "0xf39fd6e51aad88f6f4ce6ab8827279cfffb92266",
      "to": null,
      "contractAddress": "0xdc64a140aa3e981100a9beca4e685f962f0cf6c9"
    },
    {
      "status": "0x1",
      "cumulativeGasUsed": "0x10e016",
      "logs": [],
      "logsBloom": "0x00000000000000000000000000000000000000000000000000000000000000000000000000000000000000000000000000000000000000000000000000000000000000000000000000000000000000000000000000000000000000000000000000000000000000000000000000000000000000000000000000000000000000000000000000000000000000000000000000000000000000000000000000000000000000000000000000000000000000000000000000000000000000000000000000000000000000000000000000000000000000000000000000000000000000000000000000000000000000000000000000000000000000000000000000000000",
      "type": "0x2",
      "transactionHash": "0xbd58be3654598288c6b8ab5ad171bd832939664713fe48763c5c95c6d89cc044",
      "transactionIndex": "0x3",
      "blockHash": "0xe7c798c30cac80bf60b901b56b2bafca3ab258d1ade55539a895a622491f519e",
      "blockNumber": "0x4c4",
      "gasUsed": "0x103f0",
      "effectiveGasPrice": "0x8",
      "blobGasPrice": "0x1",
      "from": "0xf39fd6e51aad88f6f4ce6ab8827279cfffb92266",
      "to": "0xdc64a140aa3e981100a9beca4e685f962f0cf6c9",
      "contractAddress": null
    },
    {
      "status": "0x1",
      "cumulativeGasUsed": "0x11e406",
      "logs": [],
      "logsBloom": "0x00000000000000000000000000000000000000000000000000000000000000000000000000000000000000000000000000000000000000000000000000000000000000000000000000000000000000000000000000000000000000000000000000000000000000000000000000000000000000000000000000000000000000000000000000000000000000000000000000000000000000000000000000000000000000000000000000000000000000000000000000000000000000000000000000000000000000000000000000000000000000000000000000000000000000000000000000000000000000000000000000000000000000000000000000000000",
      "type": "0x2",
      "transactionHash": "0x19c714a8b78bdf2255dd1e2fbcb2827eb671c51da4be7393346bb02f16ff03d3",
      "transactionIndex": "0x4",
      "blockHash": "0xe7c798c30cac80bf60b901b56b2bafca3ab258d1ade55539a895a622491f519e",
      "blockNumber": "0x4c4",
      "gasUsed": "0x103f0",
      "effectiveGasPrice": "0x8",
      "blobGasPrice": "0x1",
      "from": "0xf39fd6e51aad88f6f4ce6ab8827279cfffb92266",
      "to": "0xdc64a140aa3e981100a9beca4e685f962f0cf6c9",
      "contractAddress": null
    }
  ],
  "libraries": [],
  "pending": [],
  "returns": {},
  "timestamp": 1737849823,
  "chain": 901,
  "commit": "e3028d9"
}